S01100002E2E2F50726F746575732E73313966
S32D0000C000000000205DC2000011C3000017C300001DC3000023C3000029C3000000000000000000000000000073
S32D0000C028000000002FC3000035C30000000000003BC3000041C3000055D1000061D100006DD1000079D100001E
S32D0000C05085D1000091D100009DD10000A9D10000B5D10000C1D10000CDD10000D9D10000E5D10000F1D100004A
S32D0000C078FDD1000009D2000015D2000021D200002DD2000039D2000045D2000051D200005DD2000069D2000069
S32D0000C0A075D2000081D200008DD2000099D20000A5D20000B1D20000BDD20000C9D20000D5D20000E1D2000090
S32D0000C0C8EDD20000F9D2000005D3000011D300001DD3000029D3000035D3000041D300004DD3000059D30000B0
S32D0000C0F065D300002125010071D300007DD3000089D3000095D30000A1D30000ADD30000B9D30000C5D3000033
S32D0000C118D1D30000DDD30000E9D30000F5D3000001D400000DD4000019D4000025D4000031D400003DD400006F
S32D0000C14049D4000055D4000061D400006DD40000D9FC000079D4000085D4000091D400009DD40000A9D4000047
S32D0000C168B5D40000C1D40000CDD40000D9D40000E5D40000F1D40000FDD4000009D5000015D5000021D5000030
S32D0000C1902DD5000039D5000045D50000D1F8000099F7000035F80000D9CE000071F9000051D500005DD5000068
S32D0000C1B869D5000004590100000000205C150000045901000000FF1F000000005C150020700400000000FF1F8D
S32D0000C1E00000000080B489B000AFF860B9607A60BB68FB61FB68BB6100237B617A697B689A420BD2BA69131DFB
S32D0000C208BB61FB69191DF96112681A607B6904337B61EFE700BF2437BD4680BC704780B485B000AF786039609E
S32D0000C2307B68FB600023BB60BA683B689A4208D2FB681A1DFA6000221A60BB680433BB60F2E700BF1437BD46FE
S32D0000C25880BC704780B586B000AF72B6234B4CF220521A80214B4DF628121A80204B4FF4E9721A801F4B7B615F
S32D0000C2807B691F4A934214D27B691A1D7A611B683B617B691A1D7A611B68FB607B691A1D7A611B68BB60BA68E9
S32D0000C2A8F9683869FFF79AFFE6E77B69134A93420ED27B691A1D7A611B68FB607B691A1D7A611B68BB60B9688B
S32D0000C2D0F868FFF7A8FFECE70B4B7B600B4A7B681A6008F015F962B600F0BEFE00F0B4FBFEE700BF0E2005400D
S32D0000C2F800200540BCC10000D4C10000E4C1000008ED00E000C0000080B400AFFEE780B400AFFEE780B400AFF4
S32D0000C320FEE780B400AFFEE780B400AFFEE780B400AFFEE780B400AFFEE780B400AFFEE780B400AFFEE780B426
S32D0000C34800AFFEE7FFFFFFFFFFFFFFFFFFFFFFFFFFFFFFFFFFFFFFFFFFFFFFFFFFFFFFFFFFFFFFFFFFFFFFFF57
S32D0000C370FFFFFFFFFFFFFFFFFFFFFFFFFFFFFFFFFFFFFFFFFFFFFFFFFFFFFFFFFFFFFFFFFFFFFFFFFFFFFFFFC7
S32D0000C398FFFFFFFFFFFFFFFFFFFFFFFFFFFFFFFFFFFFFFFFFFFFFFFFFFFFFFFFFFFFFFFFFFFFFFFFFFFFFFFF9F
S32D0000C3C0FFFFFFFFFFFFFFFFFFFFFFFFFFFFFFFFFFFFFFFFFFFFFFFFFFFFFFFFFFFFFFFFFFFFFFFFFFFFFFFF77
S32D0000C3E8FFFFFFFFFFFFFFFFFFFFFFFFFFFFFFFFFFFFFFFFFFFFFFFFFFFFFFFFFFFFFFFFFFFFFFFFFEFFFFFF50
S32D0000C44010B5054C237833B9044B13B10448AFF300800123237010BD5C1500200000000010C4000008B5034BBC
S32D0000C4681BB103490348AFF3008008BD000000006015002010C4000080B582B000AF044803F0F2FA78607B68F7
S32D0000C49018460837BD4680BD941500200000000080B584B000AF7860786807F09BF90EA3D3E9002307F000FAFC
S32D0000C4B802460B46104619460BA3D3E9002307F021FB02460B461046194607F0D3FC0346FB60FB6818461037A8
S32D0000C4E0BD4680BDAFF30080D221337F7CD922400000000000E0734080B584B000AF7860786807F081F90AA3EF
S32D0000C508D3E9002307F0D4F902460B461046194607F0B0FC0346FB60FB6818461037BD4680BD00BFAFF30080A4
S32D0000C530399D52A246DF913F80B500AF4FF00001044801F081F84FF00001034801F07CF800BF80BD80150020A3
S32D0000C5587815002080B500AF034803F063FA034803F060FA00BF80BD981500209C150020B0B584B000AF786037
S32D0000C58039603B68002B08D11F49204801F05CF81F49204801F058F807E01D491B4801F053F819491B4801F085
S32D0000C5A84FF8FFF7D7FF7868FFF7A2FFF860184803F026FA03461846FFF76EFF04464FF08141F86807F0B4FDB3
S32D0000C5D00346012215461946204607F055FF0346002B01D100231D46EBB2002B00D0E2E7FFF7A2FF4FF0000063
S32D0000C5F8084902F0E7FE00BF1037BD46B0BD00BF0000204278150020000020C280150020981500200000E03F26
S32D0000C62080B584B000AFF860B9607A60B86807F02FFD03467968184607F07EFD03461946204801F001F8B86832
S32D0000C64807F022FD03467968184607F071FD034619461B4800F0F4FFFFF77CFF194803F0CFF903461846FFF7A9
S32D0000C67017FF03461946F86807F010FF0346002B10D0134803F0C0F903461846FFF708FF03461946F86807F07A
S32D0000C69801FF0346002B01D0012300E00023002B00D0DBE7FFF744FF4FF00000074902F089FE00BF1037BD4601
S32D0000C6C080BD00BF7815002080150020981500209C1500200000E03FB0B586B000AFF860B9607A603B60786821
S32D0000C6E807F0D2FC03463968184607F021FD03461946304800F0A4FF786807F0C5FC03463968184607F014FD67
S32D0000C710034619462A4800F097FFFFF71FFF02F07BFE02460B461046194607F0A7FB03467B61244803F068F910
S32D0000C73803461846FFF7B0FE03461946F86807F0A9FE0346002B25D01D4803F059F903461846FFF7A1FE03464A
S32D0000C7601946F86807F09AFE0346002B16D002F053FE04460D46B968786907F0D5FB0346184607F041F802463B
S32D0000C7880B462046294607F005FB0346002B01D0012300E00023002B00D0C6E7FFF7C8FE4FF00000074902F015
S32D0000C7B00DFE00BF1837BD46B0BD00BF7815002080150020981500209C1500200000E03F90B583B000AF7860F5
S32D0000C7D8786807F003F84FF00002254B07F068F802460B461046194607F044FB03461946204800F025FF7868D1
S32D0000C80006F0F0FF4FF000021B4B07F055F802460B461046194607F031FB03461946184800F012FFFFF79AFE32
S32D0000C828FFF72AFE0346184606F0EAFF01231C460DA3D3E9002307F0CBFA0346002B01D100231C46E3B2002BE2
S32D0000C85000D0E9E7FFF770FE4FF00000094902F0B5FD00BF0C37BD4690BD00BFAFF300809A9999999999014076
S32D0000C8780000444078150020801500200000E03FF0B587B002AF02F0C3FD02460B461046194607F0EFFA0346D7
S32D0000C8A07B6002F0B9FD04460D464FF07E51786807F03AFB0346184606F0A6FF02460B4601210E46204629460A
S32D0000C8C807F068FA0346002B01D100231E46F3B2002B03D0FFF7D0FDB860DEE7424804F01AF802F095FD02467D
S32D0000C8F00B461046194607F0C1FA03467B60B86806F082FF38A3D3E9002307F065FA0346002B30D03749364825
S32D0000C91804F00CFAFF21344804F043F8EF23009340F23F13002200212F4804F03BFD02F06FFD04460D46786842
S32D0000C94006F062FF4FF000022B4B06F0FFFD02460B4601210E462046294607F01FFA0346002B01D100231E4608
S32D0000C968F3B2002B00D0E2E70223FB6030E021491D4804F0DBF94FF47F011B4804F011F8EF23009340F23F13C5
S32D0000C99000220021164804F009FD02F03DFD04460D46786806F030FF4FF00002124B06F0CDFD02460B460121F7
S32D0000C9B80E462046294607F0EDF90346002B01D100231E46F3B2002B00D0E2E70123FB60FB6818461437BD4687
S32D0000C9E0F0BD00BFAFF30080333333333333FB3F7C1800207C5101000000E03F8451010080B582B000AF7860CA
S32D0000CA087968034803F068FB00BF0837BD4680BD8815002080B500AF094803F07CFF0949094806F01FFA40F2FC
S32D0000CA300B51084803F01AFB40F60911054803F032FB00BF80BD00BF7C180020B4510100E41800208815002019
S32D0000CA5890B585B000AFFFF7DDFFFFF70DFD0346012214464FF08041184607F01DFD0346002B01D100231C46B5
S32D0000CA80E3B2002B00D0ECE7874B4FF0FF324FF07D518648FFF720FE834A01214FF07E50FFF7BEFD012180485D
S32D0000CAA8FFF766FD7E4A01217F48FFF7B5FD00217E48FFF75DFD7A4A01217D48FFF7ACFD00217C48FFF754FD01
S32D0000CAD0754A01217A48FFF7A3FD01217948FFF74BFD714A4FF0FF314FF07E50FFF798FD754BFB607549F868E3
S32D0000CAF807F0D0FC0346002B0ED0F868FFF77CFF63A1D1E9000102F05DFC6F49F86807F005FA0346FB60E9E79E
S32D0000CB206948FFF76DFF5EA1D1E9000102F04EFC5D4A01216748FFF773FD00215F48FFF71BFD594B01224FF024
S32D0000CB4880416348FFF7C4FD554A4FF0FF316148FFF762FD01216048FFF70AFD0120FFF733FEFFF78DFEB860E8
S32D0000CB704D4A4FF0FF314FF08040FFF751FD01215848FFF7F9FCBB68012B1DD1464A01215548FFF745FD0021BC
S32D0000CB985148FFF7EDFC534A01215348FFF73CFD3F4A4FF0FF315148FFF736FD00214A48FFF7DEFC3A4A01218B
S32D0000CBC04D48FFF72DFD1CE0374A01214B48FFF727FD00213B48FFF7CFFC444A01214848FFF71EFD304A4FF0D7
S32D0000CBE8FF314248FFF718FD00214448FFF7C0FC2B4A01214248FFF70FFD4FF00000FFF7FBFE274A4FF0FF31CA
S32D0000CC103548FFF705FD4FF000003C4902F0D6FB3B48FFF7EDFE00211F48FFF7A5FC01213848FFF7A1FC1C4BDB
S32D0000CC38012237492648FFF74BFD2148FFF7DCFE174A4FF0FF313348FFF7E6FC01213248FFF78EFC314806F098
S32D0000CC602FFB7860104A4FF0FF312F48FFF7D8FC7B68002B5AD100211948FFF77DFC0A4A4FF0FF311A48FFF755
S32D0000CC88CBFC01211448FFF773FC62E0AFF300809A9999999999B93F9A9999999999C93F000020420000404060
S32D0000CCB00000904100002040000098410000AE42000044410000AA42000034430000DC42000020410000904025
S32D0000CCD800C0794400000C410000A6420000A0420000C84000005C420000D0400000E0400000F0400000104143
S32D0000CD000000B0400000A242000038410000F83F0000074300007041000030400000A0400000A342E418002035
S32D0000CD280000E4417B68012B13D100213C48FFF71FFC3C4A4FF0FF313B48FFF76DFC01213748FFF715FC374A0F
S32D0000CD5001214FF07E50FFF763FC3648FFF750FE2DA1D1E9000102F031FB304A01213248FFF756FC4FF000002B
S32D0000CD78FFF742FE4FF000002E4902F023FB294A4FF0FF312C48FFF747FC2C48FFF734FE21A1D1E9000102F0F7
S32D0000CDA015FB224A01214FF08040FFF739FC2648FFF726FE1D4A4FF0FF314FF08140FFF72FFC01211848FFF7A6
S32D0000CDC8D7FB184B01221F491F48FFF781FC154A4FF0FF311648FFF71FFC01211048FFF7C7FB124A01214FF077
S32D0000CDF08340FFF715FC00210E48FFF7BDFB114A01214FF08140FFF70BFC002318461437BD4690BDAFF300806E
S32D0000CE189A9999999999C93F333333333333D33F0000A6420000204200004040000034420000604000001440D5
S32D0000CE400000304000007042000034430000204000C0794480B582B000AF786039607B68012B1ED13B684FF6E1
S32D0000CE68FF72934219D10F4A00210F4800F080FB0C4A02210D4800F07BFB00210C4803F0D5F808210B4802F059
S32D0000CE90DFFD01210A4802F009FB0221094802F005FB00BF0837BD4680BD00BF00001041781500208015002018
S32D0000CEB88815002094150020981500209C15002080B500AF4FF6FF710120FFF7BFFF80BD80B500AF0F4BD3F874
S32D0000CEE0A03003F48053002B14BF01230023DBB2002B10D0094BD3F8A030084A23F48053C2F8A030064806F0B4
S32D0000CF0895FA064B1B68054A23F40053136000BF80BD00BF00C0044004190020C0F00F4080B400AF124B4FF4EE
S32D0000CF3080725A63114B5B69104A43F4005353610E4B1B680D4A43F4005313600A4B0C4A1A630C4BD3F8883139
S32D0000CF580A4A43F08063C2F88831084B9B68074A43F08063936000BFBD4680BC704700BF00C00440C0F00F40A7
S32D0000CF8003010A0000E100E080B400AF334B00225A70324B98221A70304B9B79DBB203F01003002B14BF012362
S32D0000CFA80023DBB2002B00D0F2E72A4B9B79DBB29B08DBB203F00303022B14BF01230023DBB2002B00D0F0E7F2
S32D0000CFD0224B18221A71214B00225A71204B03F580531A461F4B53641C4B54225A711B4B9B79DBB203F020032C
S32D0000CFF8002B0CBF01230023DBB2002B00D0F2E7144B9B79DBB203F04003002B0CBF01230023DBB2002B00D072
S32D0000D020F2E70E4B1B78DBB20C4A03F03F03DBB213700A4B9B79DBB29B08DBB203F00303032B14BF012300238E
S32D0000D048DBB2002B00D0F0E700231846BD4680BC704700BF00400640007004400000130180B500AF314B03F57F
S32D0000D07080539B6B2F4A43F4785302F580529363FFF752FFFFF780FF2B4B58221A602A4B1B684FF47A7202FB35
S32D0000D09803F3284A1360274B1B681A46234B03F580535B6C1B0E03F00F030133B2FBF3F31A46214B1A601D4B97
S32D0000D0C003F58053DB6B1B4A43F0225302F58052D363184B03F580531B6B164A43F0006302F580521363174BDA
S32D0000D0E84FF480721A61642002F042F8134B5B69124A23F010035361104B00221A600F4B10225A610E4803F0DB
S32D0000D11093FA02F095FD02F0F3FD0C4802F08EF80B4806F0DBF94FF4FA6002F039F900BF80BD00BF00700440E5
S32D0000D138C8170020C4170020CC17002000D003407C180020C01700207419002080B500AFFFF7F5F800BF80BD9E
S32D0000D16080B500AFFFF7EFF800BF80BD80B500AFFFF7E9F800BF80BD80B500AFFFF7E3F800BF80BD80B500AF98
S32D0000D188FFF7DDF800BF80BD80B500AFFFF7D7F800BF80BD80B500AFFFF7D1F800BF80BD80B500AFFFF7CBF8D1
S32D0000D1B000BF80BD80B500AFFFF7C5F800BF80BD80B500AFFFF7BFF800BF80BD80B500AFFFF7B9F800BF80BDAE
S32D0000D1D880B500AFFFF7B3F800BF80BD80B500AFFFF7ADF800BF80BD80B500AFFFF7A7F800BF80BD80B500AFD4
S32D0000D200FFF7A1F800BF80BD80B500AFFFF79BF800BF80BD80B500AFFFF795F800BF80BD80B500AFFFF78FF848
S32D0000D22800BF80BD80B500AFFFF789F800BF80BD80B500AFFFF783F800BF80BD80B500AFFFF77DF800BF80BDE9
S32D0000D25080B500AFFFF777F800BF80BD80B500AFFFF771F800BF80BD80B500AFFFF76BF800BF80BD80B500AF0F
S32D0000D278FFF765F800BF80BD80B500AFFFF75FF800BF80BD80B500AFFFF759F800BF80BD80B500AFFFF753F8C0
S32D0000D2A000BF80BD80B500AFFFF74DF800BF80BD80B500AFFFF747F800BF80BD80B500AFFFF741F800BF80BD25
S32D0000D2C880B500AFFFF73BF800BF80BD80B500AFFFF735F800BF80BD80B500AFFFF72FF800BF80BD80B500AF4B
S32D0000D2F0FFF729F800BF80BD80B500AFFFF723F800BF80BD80B500AFFFF71DF800BF80BD80B500AFFFF717F838
S32D0000D31800BF80BD80B500AFFFF711F800BF80BD80B500AFFFF70BF800BF80BD80B500AFFFF705F800BF80BD60
S32D0000D34080B500AFFEF7FFFF00BF80BD80B500AFFEF7F9FF00BF80BD80B500AFFEF7F3FF00BF80BD80B500AF74
S32D0000D368FEF7EDFF00BF80BD80B500AFFEF7E7FF00BF80BD80B500AFFEF7E1FF00BF80BD80B500AFFEF7DBFF97
S32D0000D39000BF80BD80B500AFFEF7D5FF00BF80BD80B500AFFEF7CFFF00BF80BD80B500AFFEF7C9FF00BF80BD8A
S32D0000D3B880B500AFFEF7C3FF00BF80BD80B500AFFEF7BDFF00BF80BD80B500AFFEF7B7FF00BF80BD80B500AFB0
S32D0000D3E0FEF7B1FF00BF80BD80B500AFFEF7ABFF00BF80BD80B500AFFEF7A5FF00BF80BD80B500AFFEF79FFF0F
S32D0000D40800BF80BD80B500AFFEF799FF00BF80BD80B500AFFEF793FF00BF80BD80B500AFFEF78DFF00BF80BDC5
S32D0000D43080B500AFFEF787FF00BF80BD80B500AFFEF781FF00BF80BD80B500AFFEF77BFF00BF80BD80B500AFEB
S32D0000D458FEF775FF00BF80BD80B500AFFEF76FFF00BF80BD80B500AFFEF769FF00BF80BD80B500AFFEF763FF86
S32D0000D48000BF80BD80B500AFFEF75DFF00BF80BD80B500AFFEF757FF00BF80BD80B500AFFEF751FF00BF80BD01
S32D0000D4A880B500AFFEF74BFF00BF80BD80B500AFFEF745FF00BF80BD80B500AFFEF73FFF00BF80BD80B500AF27
S32D0000D4D0FEF739FF00BF80BD80B500AFFEF733FF00BF80BD80B500AFFEF72DFF00BF80BD80B500AFFEF727FFFE
S32D0000D4F800BF80BD80B500AFFEF721FF00BF80BD80B500AFFEF71BFF00BF80BD80B500AFFEF715FF00BF80BD3D
S32D0000D52080B500AFFEF70FFF00BF80BD80B500AFFEF709FF00BF80BD80B500AFFEF703FF00BF80BD80B500AF62
S32D0000D548FEF7FDFE00BF80BD80B500AFFEF7F7FE00BF80BD80B500AFFEF7F1FE00BF80BD80B500AFFEF7EBFE79
S32D0000D57000BF80BD0000000080B584B000AFF8600B467A60FB72FB68FA7A1A71FB6800225A711749786806F0A1
S32D0000D5988BFF0346002B02D0134B7B600AE04FF07E51786806F06CFF0346002B02D04FF07E537B60786806F01C
S32D0000D5C023F909A3D3E9002306F076F902460B461046194606F052FC0246FB681A60FB6818461037BD4680BD32
S32D0000D5E8ABAAAAAAAAAA20400000404180B584B000AF786039603B687F2B02DD7F23FB7308E03B6813F1800F54
S32D0000D61002DA8023FB7301E03B68FB737B685B79FA7B9A4209D07B68FA7B5A717B681979FA7B1E23034801F0A2
S32D0000D6383BFE00BF1037BD4680BD00BFC0170020B0B584B000AF786039603749386806F00DFF0346002B02D06E
S32D0000D660334B3B6008E03349386806F021FF0346002B01D02F4B3B60386806F0C5F804460D467B681B6818465B
S32D0000D68806F0BEF84FF00002294B06F03BFA02460B462046294606F00BF902460B461046194606F0E7FB034611
S32D0000D6B03B604FF00001386806F0F0FE0346002B10D0386806F0A0F817A3D3E9002306F0F3F802460B46104602
S32D0000D6D8194606F087FB0346FB6018E0386806F08FF84FF00002134B06F0E2F802460B46104619464FF0000296
S32D0000D7000D4B06F003FA02460B461046194606F06DFB0346FB60F9687868FFF76BFF00BF1037BD46B0BD00BF8A
S32D0000D72852B81E85EB51F43F0000C8C20000C842000059400000604080B483B000AF03460A46FB711346BB714A
S32D0000D750BB79002B03D1134B00221A7002E0114B01221A703823FB710E4B1A78FB791343FB710D4B9B78DBB2A3
S32D0000D7780B4A43F01003DBB29370094B9B78DBB2074A43F02003DBB29370054AFB79137100BF0C37BD4680BCA5
S32D0000D7A0704700BF9D1500200060064080B483B000AF01237B607B68312B04DC00BF7B6801337B60F7E700BFEB
S32D0000D7C80C37BD4680BC704780B582B000AF03460A46FB711346BB71134B1B7800211846FFF7AAFF00F024F83F
S32D0000D7F0104AFB79137100F01FF80E4ABB79137100F01AF80B4B9B78DBB20A4A23F02003DBB29370074B9B782B
S32D0000D818DBB2064A23F01003DBB29370FFF7C2FF00BF0837BD4680BD9E1500200060064080B483B000AF174B69
S32D0000D8401B78002B24D100237B60154BDB78DBB203F00203002B0CBF01230023DBB2002B0DD07B6842F2107266
S32D0000D868934203DD0B4B01221A7004E07B6801337B6000BFE5E7084BDB78DBB2064A43F00203DBB2D37000E00E
S32D0000D89000BF0C37BD4680BC704700BF9F1500200060064080B582B000AF0346FB71FB79184600F05FF800BF96
S32D0000D8B80837BD4680BD80B582B000AF03460A46FB711346BB7100F035F8FB795B00DBB21846FFF7E3FFBB7940
S32D0000D8E01846FFF7DFFF00F037F800BF0837BD4680BD80B500AFFF2000F03CF80346184680BD80B584B000AF68
S32D0000D9080346FB7100F016F8FB795B005BB243F001035BB2DBB21846FFF7C0FFFFF7E5FF0346FB7300F014F8F1
S32D0000D930FB7B18461037BD4680BD000080B400AF044B9B68034A43F48013936000BFBD4680BC704740F00F40FB
S32D0000D95880B400AF044B5B68034A43F48013536000BFBD4680BC704740F00F4080B485B000AF0346FB710023BE
S32D0000D980BB73164BDB6A03F00043012B0CBF01230023DBB2002B03D0FB7B0133FB73F0E70E4BDB6A0D4A43F08F
S32D0000D9A80043D3620B4AFB7953630A4BDB6A03F40033002B0CBF01230023DBB2002B00D0F3E7044B9B6BBB7374
S32D0000D9D0BB7B18461437BD4680BC704700C00A4080B582B000AF204B03F580531B6B1E4A43F4805302F580523D
S32D0000D9F813631C4B4FF480721A651B4B5B691A4A43F480135361FFF7A3FF164B4FF400725A65144B4FF40072E3
S32D0000DA209A65124B4FF40072DA65124B124A1A60104B124ADA6000237B607B68092B06DCFF20FFF72FFF7B6847
S32D0000DA4801337B60F5E704A1D1E9000101F0BAFC00BF0837BD4680BD9A9999999999B93F0070044000A0044059
S32D0000DA7040F00F4000C00A40000C00800500003E90B486B000AFF860B9607A60FB68534A93420AD1524B03F577
S32D0000DA9880535B6B504A43F4806302F58052536345E0FB684D4A93420AD14B4B03F580535B6B494A43F4006371
S32D0000DAC002F58052536336E0FB68474A93420AD1434B03F580535B6B414A43F4805302F58052536327E0FB6862
S32D0000DAE8404A93420AD13C4B03F580535B6B3A4A43F4005302F58052536318E0FB683A4A93420AD1344B03F52B
S32D0000DB1080539B6A324A43F4806302F58052936209E02F4B03F580539B6A2D4A43F4006302F580529362FB6856
S32D0000DB38DB78DBB223F00C03DAB2FB68DA70FB6800229A70BB684FF47A7203FB02F27B681B0192FBF3F39CB2F1
S32D0000DB60FB681B78DBB223F01F03FB75230A9BB2DBB203F01F03DAB2FB7D1343DAB2FB681A70E2B2FB685A70BF
S32D0000DB88BB684FF4FA4203FB02F27B681B0192FBF3F39AB263019BB2D31A9CB2FB689B7ADBB223F01F03FB7587
S32D0000DBB0E3B203F01F03DAB2FB7D1343DAB2FB689A72FB68DB78DBB243F00C03DAB2FB68DA7000BF1837BD4679
S32D0000DBD890BC704700A006400070044000B0064000C0064000D0064000A00E4080B483B000AF78607B681B791D
S32D0000DC00DBB203F02003002B0CBF01230023DBB2002B00D0F2E77B68DB79DBB218460C37BD4680BC704780B426
S32D0000DC2883B000AF78600B46FB707B681B79DBB25BB2DB43DBB2DB09DBB2002B00D0F4E77B68FA78DA7100BFF6
S32D0000DC500C37BD4680BC704780B487B000AFF860B9607A60FB687B617B685A1E7A60002B14BF01230023DBB2C2
S32D0000DC78002B06D07B695A1C7A61BA68D2B21A70EEE700BF1C37BD4680BC704780B584B000AF786039607B68CF
S32D0000DCA01B6BFB60FA683B689A4252D07B681B79002B35D07B6858787B6803F134010123FA6801F0F7F803465D
S32D0000DCC8002B14BF01230023DBB2002B01D001233CE07B6800221A717B685A6A7B681B6A1344FA689A4217D203
S32D0000DCF07B68DB78FB72FB7A012B11D97B681B6AFA681344FB607B6858787B6803F134010123FA6801F0CEF860
S32D0000DD18FB7A013BFB72EAE73B68002B15D07B6858787B6803F1340101233A6800F0DAFF0346002B14BF012382
S32D0000DD400023DBB2002B01D0012303E07B683A681A63002318461037BD4680BD80B584B000AF78600021786807
S32D0000DD68FFF794FF0346FB73FB7B002B40F093807B681B78032B7DD17B685B79002B79D07B6800221A637B68E7
S32D0000DD9034334FF4007200211846FFF75DFF7B68552283F832227B68AA2283F833227B68522283F834207B68C7
S32D0000DDB8522283F835207B68612283F836207B68412283F837207B68722283F818227B68722283F819227B686E
S32D0000DDE0412283F81A227B68612283F81B227B681B69DAB27B6883F81C227B681B699BB21B0A9BB2DAB27B68B9
S32D0000DE0883F81D227B681B691B0CDAB27B6883F81E227B681B691B0EDAB27B6883F81F227B68DB68DAB27B682A
S32D0000DE3083F820227B68DB689BB21B0A9BB2DAB27B6883F821227B68DB681B0CDAB27B6883F822227B68DB6854
S32D0000DE581B0EDAB27B6883F823227B6858787B6803F134017B685A69012301F01FF87B6800225A717B685B782D
S32D0000DE8000220021184601F0E1F80346002B14BF01230023DBB2002B01D00123FB73FB7B18461037BD4680BD05
S32D0000DEA880B582B000AF78600B467B807B68002B08D07B681B78002B04D07B68DB887A889A4201D0092311E0A5
S32D0000DED07B685B78184601F03BF9034603F00103002B14BF01230023DBB2002B01D0032300E000231846083717
S32D0000DEF8BD4680BD80B586B000AF78607B681A687B689B8819461046FFF7CAFF0346FB75FB7D002B40F0AC8033
S32D0000DF207B689B7903F02003002B00F0A5807B689B7903F04003002B1BD07B681B6858787B6803F128017B682A
S32D0000DF489A69012300F0B2FF0346002B14BF01230023DBB2002B01D001238AE07B689B7923F04003DAB27B6882
S32D0000DF709A717B681A687B68DB6919461046FFF789FE0346FB75FB7D002B75D17B681B6A3B613B690B331A78A0
S32D0000DF983B690B3342F02002D2B21A707B68DA683B691C33D2B21A707B68DB689BB21B0A9AB23B691D33D2B295
S32D0000DFC01A707B68DB681A0C3B691E33D2B21A707B68DB681A0E3B691F33D2B21A707B681A693B691A33D2B22D
S32D0000DFE81A707B681B699BB21B0A9AB23B691B33D2B21A707B681B691A0C3B691433D2B21A707B681B691B0C48
S32D0000E0109BB21B0A9AB23B691533D2B21A700023FB603B691633FA68D2B21A70FB689BB21B0A9AB23B69173340
S32D0000E038D2B21A70FB681A0C3B691833D2B21A70FB681A0E3B691933D2B21A707B689B7923F02003DAB27B6801
S32D0000E0609A717B681B6801221A717B681B681846FFF774FE0346FB75FB7D18461837BD4680BD80B584B000AF11
S32D0000E08878607868FFF736FF0346FB73FB7B002B02D17B6800221A60FB7B18461037BD4680BD000080B588B015
S32D0000E0B000AF7860396080233B610F23FB604FF0FF337B610223FB61FB69B3F5807F23D80123BB61BB69102BE3
S32D0000E0D81AD8FB69BA6902FB03F33A6803FB02F27B68D31ABB60BB68002B09DBBB687A699A4205D9BB687B613E
S32D0000E100FB693B61BB69FB60BB690133BB61E1E7FB695B00FB61D7E71D4BDB6A1C4A23F00803D3621A4BDB6A4D
S32D0000E12823F47F2323F47F63BB613B695B081B029AB2FB68013B1B01DBB21A43BB691343114A43F46023D36222
S32D0000E1500F4B5B6A03F00803002B0CBF01230023DBB2002B03D00A2001F01AF9F0E7084BDB6A074A43F0080390
S32D0000E178D362054B1B6B044A43F48013136300BF2037BD4680BD00BF00100B4080B582B000AF786039607B6806
S32D0000E1A000221A60414B424ADA62404BDB6A03F08073002B14BF01230023DBB2002B00D0F3E73A4B0022C3F8A2
S32D0000E1C8C020384B4FF481325A60364B28229A62344B4FF001125A643B689B6833491846FFF760FF2F4B5B6AAC
S32D0000E1F003F00303002B14BF01230023DBB2002B00D0F3E72C4B40F243421A602A4B40F243425A60284B4FF41D
S32D0000E21888629A60264B40F24342DA60244B40F243421A61224B40F243425A61214B03F580531B6B1F4A43F4B5
S32D0000E240003302F580521363184B4FF6FF721A63164B1B4A5A63154BDB6A144A43F00063D362124BDB6A03F0C2
S32D0000E2680063002B14BF01230023DBB2002B00D0F3E70C4B5B6A03F48033002B14BF01230023DBB2002B02D0E9
S32D0000E2907B6801221A60054B1B6B044A43F080031363002318460837BD4680BD00100B400080000160CC050083
S32D0000E2B800D0044000700440B3007F0080B400AF064B5A6A40F207331340002B14BF01230023DBB21846BD4654
S32D0000E2E080BC704700100B4080B485B000AF7860074B1B6B7A681340FB60FB68002B00D1F6E7FB681846143722
S32D0000E308BD4680BC704700BF00100B4080B584B000AF78607B681B7803F03F03764A52F82330FB60FB68002BF6
S32D0000E33005D17B681B78002B01D00123DCE0714B1B6B704A43F0800313636E4B5B6A03F00103002B14BF0123D8
S32D0000E3580023DBB2002B00D0F3E7684A7B685B689360FB6823F44003FB607B685B789B0503F44003FA68134367
S32D0000E380FB607B685B78022B03D1FB6843F40013FB607B685B78042B16D1FB6803F44033B3F5003F08D1FB6899
S32D0000E3A823F44033FB60FB6843F44033FB6007E0FB6823F44033FB60FB6843F40033FB604E4B5B684D4A9BB263
S32D0000E3D053607B68DB68002B2AD0FB6803F44033B3F5403F03D0FB6843F40013FB607B681B7A002B03D0FB6879
S32D0000E3F843F01003FB607B68DB68012B03D9FB6843F02003FB607B68DB68B3F1FF3F0BD03A4B5A687B68DB68C4
S32D0000E4201B04384913434B60FB6843F00203FB60344B00221A60334AFB68D3603248FFF753FF0346012B14BFFF
S32D0000E44801230023DBB2002B09D02C4B1B6B2B4A43F4702343F001031363012348E0274B1B6B03F08003002B00
S32D0000E47014BF01230023DBB2002B07D0214B1B6B204A43F001131363012335E01D4B1B6B03F48033002B14BFED
S32D0000E49801230023DBB2002B08D0184B1B6B174A43F0011313634FF0FF3321E0FB6803F44033002B15D0114BCD
S32D0000E4C01A697B681A61FB6803F44033B3F5803F0BD10C4B5A697B685A610A4B9A697B689A61084BDA697B68D6
S32D0000E4E8DA61064B1B6B054A43F001031363002318461037BD4680BDCC51010000100B4001000E0080B592B0F1
S32D0000E51000AF7860396000237B643B68BB63994B7B637B6B002B02D140F601235FE3964B3B633B6B002B02D195
S32D0000E53840F60B2357E33B6B1B68FB62FB6A002B02D140F60B234EE37B6841F20932934200F23F837B68B3F534
S32D0000E560985F08D87B68032B00F01A837B68092B00F0098331E37B68A3F59853013B082B00F22B8301A252F80F
S32D0000E58823F000BFB1E500009DE80000F9EA0000B3E80000F1E8000017EA00005FEA0000A1E90000BBE90000A9
S32D0000E5B07649786BFFF7EEFD78647B6C002B40F01083002387F84330002387F82B30002387F82A30002387F859
S32D0000E5D82930002387F84230002387F8283000233B7200237B720023FB6000233B7400237B6107F1080318461E
S32D0000E600FFF788FE0346002B14BF01230023DBB2002B02D001237B64E8E240F24C4000F0BFFE08233B72002325
S32D0000E6287B724FF4D573FB6000233B7400237B6107F108031846FFF769FEF863FB6B002B09D1BA69FB689A423A
S32D0000E65002D001237B64C9E2012387F84230012387F8283097F82830002B00F0A58037233B7200237B720023AB
S32D0000E678FB6000233B7400237B6107F108031846FFF744FEF863FB6B002B02D001237B64A8E269233B72002308
S32D0000E6A07B720023FB6000233B7400237B6107F108031846FFF72EFE0346002B14BF01230023DBB2002B02D075
S32D0000E6C801237B648EE2BB6903F44013002B6FD00023FB630A2000F05FFEFB6B0133FB6337233B7200237B72D2
S32D0000E6F00023FB6000233B7400237B6107F108031846FFF707FE0346002B14BF01230023DBB2002B02D0012315
S32D0000E7187B6428E069233B7200237B7297F84230002B02D0184BFB6002E04FF44013FB6000233B7400237B6143
S32D0000E74007F108031846FFF7E5FD0346002B14BF01230023DBB2002B02D001237B6406E0BB69002B03DBFB6BDE
S32D0000E768632B00D8B6E77B6C002B40F03882FB6B632B0BD9002387F8423019E0B4150020B8170020C0510100B5
S32D0000E79000003040012387F8433097F84230002B0AD0002387F84230BB6903F08043002B02D0012387F84230CF
S32D0000E7B897F82A30002B02D07B6B07221A6097F82930002B02D07B6B08221A6097F82B30002B02D07B6B042262
S32D0000E7E01A6097F84330002B09D07B6B02221A6097F84230002B02D07B6B03221A6097F82B30002B0DD097F803
S32D0000E8084330002B09D07B6B05221A6097F84230002B02D07B6B06221A60924B00221A60904B00225A608F4B54
S32D0000E83000229A608D4B0022DA608C4B00221A618A4B00225A61FB6A9A68FB6A5B6819461046FFF72BFC854B13
S32D0000E85840F243421A60834B40F243425A60814B4FF488629A607F4B40F24342DA607D4B40F243421A617B4BB4
S32D0000E88040F243425A617A4B03F580531B6B784A43F4003302F580521363A7E1B86BFFF739FDF863FB6B002BB4
S32D0000E8A800F09F8102237B649BE1BB6B002B02D10C237B6496E16D4BDB6A1B0A5B0003F4FF73FB63694BDB6ACC
S32D0000E8D01B0903F00F035A1CFB6B02FB03F3FB63FB6A9A68FB6BB2FBF3F2BB6B1A607DE1BB6B002B02D10C2314
S32D0000E8F87B6477E1BB6B1B68002B02D10C237B6470E1FFF7DBFC0346002B0CBF01230023DBB2002B3CD0534B00
S32D0000E92000221A60514B00225A60504B00229A604E4B0022DA604D4B00221A614B4B00225A61FB6A9A68BB6BD4
S32D0000E9481B6819461046FFF7ADFB464B40F243421A60444B40F243425A60424B4FF488629A60404B40F2434213
S32D0000E970DA603E4B40F243421A613C4B40F243425A613B4B03F580531B6B394A43F4003302F58052136329E17E
S32D0000E99840F60A237B6425E1BB6B002B02D10C237B641FE1314B5B68C3F30C02BB6B1A6018E1BB6B002B02D117
S32D0000E9C00C237B6412E1FFF77DFC0346002B0CBF01230023DBB2002B19D0BB6B1B68B3F5805F02D30C237B647F
S32D0000E9E800E1224B5B68214A23F4FF5323F01F0353601E4B5A68BB6B1B68C3F30C031B4913434B60EEE040F632
S32D0000EA100A237B64EAE0BB6B002B02D10C237B64E4E0144B9B6A5B0803F00303FB63FB6B002B03D1BB6B002241
S32D0000EA381A60D7E0FB6B012B03D1BB6B01221A60D0E0FB6B102B03D1BB6B02221A60C9E005237B64C6E0BB6BF1
S32D0000EA60002B09D10C237B64C0E000BF00D004400070044000100B40FFF724FC0346002B0CBF01230023DBB2CA
S32D0000EA88002B31D0BB6B1B68002B0AD1584B9B6A574A23F006039362554B554A9B6A9362A0E0BB6B1B68012B9D
S32D0000EAB00CD1514B9B6A504A23F0060393624E4B9B6A4D4A43F0020393628FE0BB6B1B68022B0AD1484B9B6AF5
S32D0000EAD8474A23F006039362454B454A9B6A936280E005237B647DE040F60A237B6479E0BB6B002B02D10C23A3
S32D0000EB007B6473E03C4BDB6A3B4A43F00063D362394BDB6A03F00063002B14BF01230023DBB2002B00D0F3E7D3
S32D0000EB28334B1B6B03F08003002B14BF01230023DBB2002B08D02E4B1B6B2D4A43F0800313637B6B00221A604C
S32D0000EB50294B5B6A03F48033002B14BF01230023DBB2002B07D07B6B1B68002B06D17B6B01221A6002E07B6B2A
S32D0000EB7800221A607B6B1A68BB6B1A6032E0BB6B1C221A60BB6B043304221A60BB6B08334FF41E721A6025E02B
S32D0000EBA00220FFF7A1FB144B1B6B03F4E003002B14BF01230023DBB2002B07D00E4B1B6B0D4A43F4E00313633A
S32D0000EBC804237B640A4B1B6B094A43F03203136308E040F609237B6404E000BF02E000BF00E000BF7B6C1846BC
S32D0000EBF04837BD4680BD00BF00100B4080B489B000AF786039607B687B61364B3B613B69002B01D100235FE0B2
S32D0000EC183B691B68022B0BD03B691B68032B07D03B691B68072B03D03B691B68082B0BD12B4B5B6A03F00403DC
S32D0000EC40002B14BF01230023DBB2002B00D0F3E73B68FB61FB69002B3DD0FB69B3F5007F28BF4FF40073FB60E1
S32D0000EC68FB6803339B08BB61BB69002B2AD01C4B1B6B03F4E003002B14BF01230023DBB2002B09D0164B1B6B59
S32D0000EC90154A43F4E00343F02003136300231BE0114B5B6A03F40063002B0CBF01230023DBB2002B00D0F3E7D9
S32D0000ECB80B497B691A1D7A610A6A1A60BB69013BBB61D1E7FA69FB68D31AFB61BEE7012318462437BD4680BCF2
S32D0000ECE0704700BFB415002000100B4080B58EB000AFB9607A601A460346FB731346BB73414B7B63FB7B002B8E
S32D0000ED0802D1BB7B002B01D1042375E03D4B1B78DBB203F00103002B14BF01230023DBB2002B01D0032367E081
S32D0000ED30BB68002B01D1002362E07B6B1B7B002B02D17B685B027B60BB7B012B28D111233B7500237B757B6866
S32D0000ED58BB6101233B77BB7B3B6207F11403194641F20230FFF7CEFB0346002B0CBF01230023DBB2002B38D0F0
S32D0000ED804FF40071B868FFF739FF0346002B14BF01230023DBB2002B2BD00023BB7328E012233B7500237B75D1
S32D0000EDA87B68BB6101233B77BB7B3B6207F11403194641F20230FFF7A5FB0346002B0CBF01230023DBB2002BEE
S32D0000EDD00FD0BB7B5B021946B868FFF70FFF0346002B14BF01230023DBB2002B01D00023BB73BB7B002B01D086
S32D0000EDF8012300E0002300BF18463837BD4680BDA01500200000002080B487B000AF786039607B68FB603B6899
S32D0000EE207B617B69002B3DD07B69B3F5007F28BF4FF400733B617A693B69D31A7B613B6903339B083B613B697B
S32D0000EE48002BEAD0184B1B6B03F4E003002B14BF01230023DBB2002B0AD0134B1B6B124A43F4E00343F010037D
S32D0000EE7013634FF0FF3316E00D4B5B6A03F48063002B0CBF01230023DBB2002B00D0F3E7FB681A1DFA60064ABD
S32D0000EE981B6813623B69013B3B61D0E7012318461C37BD4680BC704700100B4080B58EB000AFB9607A601A4686
S32D0000EEC00346FB731346BB735D4B7B63FB7B002B02D1BB7B002B01D10423ADE0594B1B78DBB203F00103002B1F
S32D0000EEE814BF01230023DBB2002B01D003239FE0524B1B78DBB203F00403002B14BF01230023DBB2002B01D02F
S32D0000EF10022391E0BB68002B01D100238CE07B6B1B7B002B02D17B685B027B60BB7B012B28D118233B75002390
S32D0000EF387B757B68BB6100233B77BB7B3B6207F11403194641F20230FFF7DCFA0346002B0CBF01230023DBB262
S32D0000EF60002B38D04FF40071B868FFF751FF0346002B14BF01230023DBB2002B2BD00023BB7328E019233B75B0
S32D0000EF8800237B757B68BB6100233B77BB7B3B6207F11403194641F20230FFF7B3FA0346002B0CBF01230023A5
S32D0000EFB0DBB2002B0FD0BB7B5B021946B868FFF727FF0346002B14BF01230023DBB2002B01D00023BB730D23D6
S32D0000EFD83B7500237B757B6B1B69BB6100233B7700233B6207F11403194641F20230FFF789FA0346002B14BF9A
S32D0000F00001230023DBB2002B01D0012314E07A6A0D4B1340002B01D001230DE07B6A03F4F853B3F5106F00D040
S32D0000F028D5E7BB7B002B01D0012300E0002300BF18463837BD4680BDA0150020000000200880D9FF80B58CB013
S32D0000F05000AF03463A60FB710B46BB713A4BBB62FB79002B01D0042369E0012387F82F30364B1B78DBB203F0FF
S32D0000F0780103002B14BF01230023DBB2002B01D0032358E0BB79032B50D801A252F823F0A9F00000B1F0000076
S32D0000F0A0C1F00000D1F00000002387F82F3044E0BB6A9A683B681A60002387F82F303CE03B684FF400721A8058
S32D0000F0C8002387F82F3034E009233B7200237B72BB6A1B69FB6000233B7400237B6107F10803194641F2023080
S32D0000F0F0FFF70CFA0346002B14BF01230023DBB2002B01D001231AE07B6A03F44003002B0CD13B6A9B0C03F05B
S32D0000F1187F035A1C7B6A1B0A03F00303013B9A403B681A60002387F82F3002E0042387F82F3097F82F30184667
S32D0000F1403037BD4680BD00BFA01500200000002080B483B000AF0346FB71FB79002B01D0012302E0034B1B7824
S32D0000F168DBB218460C37BD4680BC70470000002080B483B000AF7860164B03F580539B6B144A43F0010302F589
S32D0000F19080529363124A7B689360114B05225A600F4B1B680E4A43F0010313600C4B1B6803F08003002B0CBFF5
S32D0000F1B801230023DBB2002B00D0F3E7064B1B68054A23F00103136000BF0C37BD4680BC704700BF0070044068
S32D0000F1E00000044080B582B000AF786039607B68012B07D13B684FF6FF72934202D1034800F00EF800BF08370F
S32D0000F208BD4680BDC017002080B500AF4FF6FF710120FFF7E3FF80BD80B483B000AF78607B6800221A707B6872
S32D0000F23018460C37BD4680BC7047000080B582B000AF78607B681B7883F00103DBB2002B21D0134B03F580536C
S32D0000F2581A464FF400639362104B4FF440721A620E4B4FF440725A620D4B1B68DA0F13445B104FF461421946EC
S32D0000F2800A48FEF7FDFB642000F08AF87B6801221A70012300E0002318460837BD4680BD0070044000D00440CF
S32D0000F2A8C417002000B00E4080B582B000AF7860084611461A460346FB700B46BB7013467B707F210E48FEF7ED
S32D0000F2D0AAFC08210C48FEF7A6FCFB7819460A48FEF7A1FCBB7819460748FEF79CFC7B7819460548FEF797FC0B
S32D0000F2F8FF210348FEF793FC00BF0837BD4680BD00B00E4080B487B000AFF860B9607A60FB681F4AA2FB0323C9
S32D0000F3209B09BA6813447B61FB681B4AA2FB031292094FF47A7101FB02F29B1AFB60FB68DB03154AA2FB032320
S32D0000F3489B097A6813443B613B69DB0B7A6913447B613B69C3F30E033B610E4B1B687A699A4209D80B4B1B6822
S32D0000F3707A699A4206D1094B5B683A699A4201D9012300E00023002B00D0EAE700BF1C37BD4680BC704700BFAF
S32D0000F398D34D621000D0034080B584B000AF7860074B1B68FB60064B5B68BB607B68BA68F9681846FFF7A6FFF4
S32D0000F3C000BF1037BD4680BD00D0034080B584B000AFC7E900010E4B1B68FB600C4B5B68BB604FF000020B4BFA
S32D0000F3E8D7E9000104F064FA02460B461046194604F020FD0346BA68F9681846FFF782FF00BF1037BD4680BD9E
S32D0000F41000D0034000408F4080B584B000AF134B1B68FB60114B5B68BB60F86804F0CAF902460B46C7E900239B
S32D0000F438B86804F0C3F94FF000020B4B04F062FB02460B46D7E9000104F07CF802460B46C7E90023D7E90023DD
S32D0000F460104619461037BD4680BD00BF00D003400000E04080B483B000AF0B4B1B684FF47A7202FB03F37B6064
S32D0000F488074B5B684FF47A7202FB03F3DB0B7A6813447B607B6818460C37BD4680BC704700D0034080B584B02F
S32D0000F4B000AF78600B46FB700B23FB73FA7BFB781946786800F094F87B6818461037BD4680BD000080B485B07B
S32D0000F4D800AF78607B68103B002B00DA1F335B11FB60FB68022B53D0FB68022B75DCFB68002B03D0FB68012BAF
S32D0000F50025D06EE0394BD3F880217B68103B594203F01F0301F01F0158BF4B42012101FA03F332491343C1F87A
S32D0000F5288031304B1A687B68103B594203F01F0301F01F0158BF4B42012101FA03F3294913430B6049E0274B93
S32D0000F550D3F884217B68103B594203F01F0301F01F0158BF4B42012101FA03F31F491343C1F884311D4B5A6821
S32D0000F5787B68103B594203F01F0301F01F0158BF4B42012101FA03F3164913434B6024E0144BD3F888217B68A5
S32D0000F5A0103B594203F01F0301F01F0158BF4B42012101FA03F30D491343C1F888310B4B9A687B68103B59423B
S32D0000F5C803F01F0301F01F0158BF4B42012101FA03F3044913438B6000BF00BF1437BD4680BC704700E100E02A
S32D0000F5F080B584B000AF78600B46FB701346BB707B68FA781A70BB78FB737B681B781A46574B9B5C042B00F2AD
S32D0000F618A68001A252F823F035F6000081F60000CDF6000065F7000019F70000FB7B1B0403F470234D497A6836
S32D0000F640127810464C4A52F8202043F4897343F0010341F82230494B5A697B681B781946454B53F8213003F05C
S32D0000F6681F03012101FA03F3DB43424913404B616720FFF72BFF72E0FB7B1B0403F470233D497A681278104637
S32D0000F690394A52F8202043F4897343F0010341F82230384B5A697B681B781946324B53F8213003F01F030121DF
S32D0000F6B801FA03F3DB43314913404B616820FFF705FF4CE0FB7B1B0403F470232C497A6812781046264A52F8DE
S32D0000F6E0202043F4897343F0010341F82230274B5A697B681B7819461F4B53F8213003F01F03012101FA03F38F
S32D0000F708DB43204913404B616920FFF7DFFE26E0FB7B1B0403F470231B497A6812781046134A52F8202043F488
S32D0000F730897343F0010341F82230164B5A697B681B7819460C4B53F8213003F01F03012101FA03F3DB430F4963
S32D0000F75813404B616B20FFF7B9FE00E000BF00BF1037BD4680BD00BFCC520100009004401053010000F00F4012
S32D0000F78000A0044040F00F4000B0044080F00F4000D0044000F10F40B0B48BB000AF224B3C1D1D460FCD0FC4CB
S32D0000F7A895E80F0084E80F0000237B627B6A072B30DC1C4BD3F8A0207B6A9B0028333B4453F8243C012101FAF5
S32D0000F7D003F31340002B14BF01230023DBB2002B18D0134A7B6A52F823305A1C10497B6A41F823200D4BD3F8AB
S32D0000F7F8A0207B6A9B0028333B4453F8243C012101FA03F307491340C1F8A0307B6A01337B62CBE700BF2C3715
S32D0000F820BD46B0BC704700BF1454010000A00440F0170020B0B489B000AF224B3C1D1D460FCD0FC495E80300BD
S32D0000F84884E803000023FB61FB69052B30DC1C4BD3F8A020FB699B0020333B4453F81C3C012101FA03F3134038
S32D0000F870002B14BF01230023DBB2002B18D0FB690833124A52F823200132104941F823200D4BD3F8A020FB69AE
S32D0000F8989B0020333B4453F81C3C012101FA03F307491340C1F8A030FB690133FB61CBE700BF2437BD46B0BCC4
S32D0000F8C0704700BF3454010000B00440F0170020B0B48DB000AF234B3C461D460FCD0FC40FCD0FC495E807007B
S32D0000F8E884E807000023FB62FB6A0A2B30DC1C4BD3F8A020FB6A9B0030333B4453F8303C012101FA03F3134068
S32D0000F910002B14BF01230023DBB2002B18D0FB6A0E33124A52F823200132104941F823200D4BD3F8A020FB6A05
S32D0000F9389B0030333B4453F8303C012101FA03F307491340C1F8A030FB6A0133FB62CBE700BF3437BD46B0BCED
S32D0000F960704700BF4C54010000900440F0170020B0B487B000AF214B3C461D460FCD0FC42B68236000237B6108
S32D0000F9887B69042B30DC1C4BD3F8A0207B699B0018333B4453F8183C012101FA03F31340002B14BF01230023AD
S32D0000F9B0DBB2002B18D07B691933124A52F823200132104941F823200D4BD3F8A0207B699B0018333B4453F8F1
S32D0000F9D8183C012101FA03F307491340C1F8A0307B6901337B61CBE700BF1C37BD46B0BC704700BF7854010004
S32D0000FA0000D00440F017002080B483B000AF78607B681B781A46044B53F8223018460C37BD4680BC704700BF97
S32D0000FA28F017002080B483B000AF78607B681B781946044B002243F8212000BF0C37BD4680BC7047F0170020BA
S32D0000FA5080B483B000AF78600B46FB707B68FA781A707B6818460C37BD4680BC7047000080B586B000AF786093
S32D0000FA787B681B781A463E4B53F822303B617B681B781A463B4B9B5CFB733B69DBB203F01F03DAB2384B1A7226
S32D0000FAA03B69DBB203F01F03DAB2354B5A72354B1022C3F88820FB7B002B13D13049324800F05AFA304B1B684B
S32D0000FAC803F08003802B14BF01230023DBB2002B00D0F3E72A4B1B697B6112E02649294800F046FA274B1B68A7
S32D0000FAF003F08003802B14BF01230023DBB2002B00D0F3E7214B1B697B611E4BD3F888311C4A43F01003C2F82C
S32D0000FB1888311A4B9B68194A43F0100393607B699BB2184603F04AFE0DA3D3E9002303F0BFFE02460B4610460A
S32D0000FB4019460BA3D3E9002303F0E0FF02460B461046194604F092F90346BB60BB6818461837BD4680BD00BFD9
S32D0000FB68A4703D0AD7A30A4000000000E0FFEF4090530100EC520100D017002000E100E000B0034000B00B4069
S32D0000FB9080B586B000AF78607B681B781A46234B53F822303B617B681B781A46204B9B5CFB733B69DBB203F00E
S32D0000FBB81F03DAB21D4B1A723B69DBB203F01F03DAB21A4B5A72FB7B002B13D11749184800F0CEF9164B1B689A
S32D0000FBE003F08003802B14BF01230023DBB2002B00D0F3E7104B1B697B6112E00D490F4800F0BAF90D4B1B6882
S32D0000FC0803F08003802B14BF01230023DBB2002B00D0F3E7074B1B697B617B6918461837BD4680BD90530100CA
S32D0000FC30EC520100E017002000B0034000B00B4098B500AF204B5C221A701F4B10225A701D4B41F234225A80C2
S32D0000FC581B4B45F278629A80194B10229A71184B0722DA71164B4FF4C022DA60144B1F221A72134B1F225A721E
S32D0000FC801149124800F078F90F49114800F074F90F4800F0D2F80D4800F0CFF80A490C4800F06AF9084909487A
S32D0000FCA800F066F9094A064B14460FCB84E80F00064B5C221A70054B0422DA7100BF98BDD017002000B0034064
S32D0000FCD000B00B40E017002080B500AF064B1B680133054A136000F03DF8044B0122C3F80C2100BF80BD00BF0C
S32D0000FCF8741800200070034080B500AF0C4B01221A600C4800F01AF8094B0322C3F80821094BD3F88831084ACA
S32D0000FD2043F01003C2F88831054B9B68044A43F01003936000BF80BD00700340A086010000E100E080B483B024
S32D0000FD4800AF7860044A7B68C2F8003100BF0C37BD4680BC704700BF0070034080B584B000AF174B1B68FB6028
S32D0000FD70FB68002B24D0FB685B78FB71FB689B68184600F023F80346BB71BB79002B13D0FB685B68012B0FDD7D
S32D0000FD98FB689B681B69BB60BB68002B08D0BB685B685A1CBB685A60BB681B69BB60F3E7FB68DB68FB60D7E77E
S32D0000FDC000BF1037BD4680BD7018002080B584B000AF78607868FFF7DBFEF8607B689B695B78FB72FB7A002B69
S32D0000FDE80FD17B68DB68FA689A420ADD7B689B6901225A707B685B685A1C7B685A60012313E0FB7A012B0FD19D
S32D0000FE107B689B68FA689A420ADA7B689B6900225A707B685B685A1C7B685A60012300E0002318461037BD4661
S32D0000FE3880BD80B485B000AF78607B681B6A23F040027B681A627B685B6A23F00B027B685A627B685B6A43F011
S32D0000FE6007027B685A627B685B6A43F080027B685A627B681B6803F08003002B0CBF01230023DBB2002B00D02F
S32D0000FE88F3E77B685B6A03F04003402B0CBF01230023DBB2002B01D0012364E00023FB817B68DB6CFB817B68FE
S32D0000FEB09B6C9AB2FB891344FB817B685B6C9AB2FB891344FB817B681B6C9AB2FB891344FB817B68DB6B9AB2AB
S32D0000FED8FB891344FB817B689B6B9AB2FB891344FB81FB895B08FB81FB896FEA43436FEA5343FB81FA897B6882
S32D0000FF00DA620023FB817B68DB6EFB817B689B6E9AB2FB891344FB817B685B6E9AB2FB891344FB817B681B6E06
S32D0000FF289AB2FB891344FB817B68DB6D9AB2FB891344FB817B689B6D9AB2FB891344FB81FB895B08FB81FB89C5
S32D0000FF506FEA43436FEA5343FB81FA897B681A637B685B6A23F080027B685A62002318461437BD4680BC7047B8
S32D0000FF7880B483B000AF786039603B681B781A467B689A603B685B781A467B68DA603B685B881A467B689A61AA
S32D0000FFA03B689B881A467B68DA613B689B791A467B681A623B68DB791A467B685A623B68DA687B681A653B6899
S32D0000FFC81B7A1A467B681A603B685B7A1A467B685A6000BF0C37BD4680BC704780B483B000AF78607B6818461D
S32D0000FFF00C37BD4680BC704780B582B000AF786039607B68012B07D13B684FF6FF72934202D10348FFF7E6FF15
S32D0001001800BF0837BD4680BD7818002080B500AF4FF6FF710120FFF7E3FF80BD80B483B000AF78600B46FB7052
S32D000100407B68FA781A707B684FF4FA725A807B6840F6C4129A807B68034A9A607B6818460C37BD4680BC704799
S32D00010068000080BF80B483B000AF786039603B68B3F5FA7F04DB3B6840F6C412934204DD7B684FF4FA725A802F
S32D0001009004E03B689AB27B685A8000BF00BF0C37BD4680BC704780B483B000AF786039603B68B3F5FA7F04DBD0
S32D000100B83B6840F6C412934204DD7B6840F6C4129A8004E03B689AB27B689A8000BF00BF0C37BD4680BC704724
S32D000100E02DE9904385B000AF786039604FF00001386804F0BFF90346002B02D04FF000033B603249386804F0F5
S32D00010108D3F90346002B01D02E4B3B607B689B681946386804F0A0F90346002B00D04BE07B683A689A607B6860
S32D000101305C887B689B881A467B685B88D31A184603F050FB4FF00002214B03F0DFFC02460B469046994638689E
S32D0001015803F056FB02460B464046494603F0A8FB02460B461046194603F064FE03469BB22344FB81FB897B7362
S32D00010180FB891B0A9BB23B737F211248FDF74BFD05211048FDF747FD7B681B7819460D48FDF741FD3B7B19464F
S32D000101A80A48FDF73CFD7B7B19460848FDF737FDFF210648FDF733FD00BF1437BD46BDE8908300BF000034434F
S32D000101D00080664000B00E4080B582B000AF7860B84B4FF48072DA60B74B4FF480729A64B54B4FF480721A6494
S32D000101F8B34B4FF480725A64B14B4FF48072DA60B04B5B69AF4A43F008035361AE4B5B69AD4A43F48023536190
S32D00010220AB4B5B69AA4A43F480335361A84B5B69A74A43F400335361A54B1B68A44A43F008031360A24B5B69DA
S32D00010248A14A43F0080353619E4B1B689D4A43F0080313609A4B4FF480725A62984B4FF480721A62954B4FF419
S32D0001027080721A61934B4FF480725A61914B4FF480729A618F4B4FF48072DA618D4B4FF480721A638B4B4FF42B
S32D0001029880725A63894B4FF480729A63874B4FF48072DA63854B4FF480721A64834B4FF480725A64814B4FF4EB
S32D000102C080729A647F4B4FF48072DA64814B4FF480721A607F4B4FF480729A607D4B4FF48072DA607B4B4FF42E
S32D000102E880721A61784B5B69774A43F440735361744B5B69734A43F47F2343F0F0035361734B5B69724A43F030
S32D000103101D035361E221786800F034FD1D21786800F0D6FD0221786800F0D2FD0421786800F0CEFDE0217868A2
S32D0001033800F024FD0121786800F0C6FD6420FFF72BF8E021786800F019FD0321786800F0BBFD0121786800F0AE
S32D0001036011FD0120FFF71CF8E621786800F00AFD0121786800F0ACFDA021786800F0A8FDFF21786800F0A4FDF5
S32D00010388B021786800F0FAFC1C21786800F09CFD0F21786800F098FD0121786800F094FD3F21786800F090FD34
S32D000103B00021786800F08CFDEF21786800F088FD0021786800F084FDB421786800F0DAFC0121786800F07CFDE7
S32D000103D89921786800F078FD0021786800F074FD4521786800F070FD0221786800F06CFD0021786800F068FD40
S32D000104000021786800F064FD0021786800F060FDB621786800F0B6FC0121786800F058FD0921786800F054FD42
S32D000104280021786800F050FD0E21786800F04CFD0221786800F048FD0021786800F044FD0021786800F040FD87
S32D00010450BA21786800F096FC0F21786800F038FD6420FEF79DFF3A21786800F08BFC6021786800F02DFD2A217E
S32D00010478786800F083FC0021786800F025FD0021786800F021FD0121786800F01DFD3F21786800F019FD2B2146
S32D000104A0786800F06FFC0021786800F011FD0021786800F00DFD0021786800F009FDEF2178680BE000B0044032
S32D000104C800A0044080F00F4040F00F4000C00440C0F00F4000F0F8FC3621786800F04EFC0021786800F0F0FCAE
S32D000104F0F021786800F046FC0421786800F0E8FCB821786800F03EFC0F21786800F0E0FC0121786800F0DCFC58
S32D00010518314B1B68304A43F0080313606420FEF73BFF3621786800F029FC0021786800F0CBFCF021786800F0F2
S32D0001054021FC0421786800F0C3FC0121786800F0BCF91E226F21786800F082F8AF225621786800F0DBF80021EE
S32D00010568786800F00AFA012301221C49786800F02BFA2921786800F001FC6420FEF70CFFBE21786800F0FAFBB0
S32D000105900E21786800F09CFCF021786800F098FC0121786800F094FC0021786800F090FC0021786800F08CFCB8
S32D000105B80F21786800F088FC786800F028FA0121786800F0DAF90021786800F0AFF900BF0837BD4680BD00BF43
S32D000105E040F00F408C54010080B582B000AF78607B680022DA617B6801221A627B680E225A607B681A229A60F6
S32D000106087B6800225A617B6800229A617B684FF4A072DA607B68F0221A617B6800221A70786801F0ABF97B683A
S32D0001063018460837BD4680BD80B582B000AF7860064B1B78002B05D1044B01221A707868FFF7C2FD00BF08375C
S32D00010658BD4680BDC018002080B58AB002AFF860B9607A607E23009362237A68B968F86800F019FE40F24E73BA
S32D000106803B610023FB61FA693B699A4240DA0023BB61214AFB6913441B781A46BB69934232DAFB6901331C4AD8
S32D000106A8D35C002B06D1FF23FB75FF23BB75FF237B7512E0FB690133154AD35C012B06D1D423FB750023BB7527
S32D000106D026237B7505E0B523FB75BA23BB75B0237B757B7DBA7DF97DF86800F0C9F80246FB68DA61F86801F0D8
S32D000106F845F9F86801F07EF8BB690133BB61C4E7FB690233FB61BAE700BF2037BD4680BD0400002080B58AB030
S32D0001072002AFF860B9607A602723009395237A68B968F86800F0BBFD40F2E6333B610023FB61FA693B699A42C5
S32D0001074840DA0023BB61214AFB6913441B781A46BB69934232DAFB6901331C4AD35C002B06D1FF23FB75FF2328
S32D00010770BB75FF237B7512E0FB690133154AD35C012B06D10023FB750023BB7500237B7505E0D423FB75002395
S32D00010798BB7526237B757B7DBA7DF97DF86800F06BF80246FB68DA61F86801F0E7F8F86801F020F8BB6901339A
S32D000107C0BB61C4E7FB690233FB61BAE700BF2037BD4680BD5407002080B485B000AF78600B46FB70FB78062B8C
S32D000107E829D801A252F823F0150801000D0801001B080100230801002B08010031080100390801006FF07F438C
S32D00010810FB6014E00023FB6011E04FF47F03FB600DE04FF47F43FB6009E0FF23FB6006E04FF41903FB6002E0A6
S32D00010838044BFB6000BFFB6818461437BD4680BC704700BF9999990080B584B000AF786039603B681B0CFB73DB
S32D000108603B681B0ABB733B687B737B7BBA7BF97B786800F005F8034618461037BD4680BD80B487B000AF786056
S32D00010888084611461A460346FB700B46BB7013467B70FB789B08DBB27B61BB789B08DBB23B617B789B08DBB227
S32D000108B0FB607B691A033B699B011A43FB68134318461C37BD4680BC704780B582B000AF78600B46FB70FB78A3
S32D000108D819467868FFF77CFF03461946786800F004F800BF0837BD4680BD80B582B000AF786039603968786887
S32D00010900FFF7A6FF02467B681A62786801F03AF8786800F075FB00BF0837BD4680BD80B582B000AF7860786837
S32D0001092800F06AFB00BF0837BD4680BD80B582B000AF78600B46FB70FB7819467868FFF747FF034619467868ED
S32D0001095000F004F800BF0837BD4680BD80B582B000AF7860396039687868FFF771FF02467B681A62786801F068
S32D0001097805F800BF0837BD4680BD80B582B000AF78600B46FB70FB7819467868FFF720FF03461946786800F02C
S32D000109A004F800BF0837BD4680BD80B582B000AF7860396039687868FFF74AFF02467B68DA61786800F0DEFF94
S32D000109C800BF0837BD4680BD80B586B000AFF860B9607A603B6000237B617B69BA6813441B78002B0FD07B69E5
S32D000109F0BA6813441B783A687968F86800F0BCFD7B680C337B607B6901337B61E9E700BF1837BD4680BD80B5FC
S32D00010A1882B000AF7860FCF7DFFF67210120FCF74AFF00210220FCF746FFA0210320FCF742FF50210420FCF725
S32D00010A403EFF20210520FCF73AFF20210620FCF736FF77210720FCF732FF00210820FCF72EFF00210920FCF7A0
S32D00010A682AFF00210A20FCF726FF04210B20FCF722FF7B684FF0FF32DA637B684FF0FF321A6400BF0837BD460D
S32D00010A9080BD00000000000080B586B000AFF860B9607A600020FCF72CFF0346FB75FB7D03F00203002B00F013
S32D00010AB8CE80FCF73FFFE020FCF7F0FE0220FEF76BFCFCF745FF0120FEF766FCFCF732FFA520FCF7E3FE0120A4
S32D00010AE0FEF75EFCFCF705FF03469BB21B02BB82FCF7FFFE03469AB2BB8A1343BB82FCF7F8FE03469BB21B02B8
S32D00010B087B82FCF7F2FE03469AB27B8A13437B82BB8A1B09BB827B8A1B097B82FCF718FFFB68DB6BB3F1FF3F90
S32D00010B3034D1FB681B6CB3F1FF3F2FD1BA8AFB68DA637A8AFB681A647B8AC3F57F630F337B82BB8A184602F089
S32D00010B5845FE49A3D3E9002302F0AAFE02460B461046194603F086F90246BB681A607B8A184602F033FE42A3B6
S32D00010B80D3E9002302F098FE02460B461046194603F074F902467B681A605AE0FB68DA6BBB8AD31A1946F868B9
S32D00010BA800F074F80346632B0CDCFB681A6C7B8AD31A1946F86800F069F80346632B01DC012300E00023002B12
S32D00010BD02FD0BA8AFB68DA637A8AFB681A647B8AC3F57F630F337B82BB8A184602F0FAFD23A3D3E9002302F02D
S32D00010BF85FFE02460B461046194603F03BF90246BB681A607B8A184602F0E8FD1CA3D3E9002302F04DFE0246BA
S32D00010C200B461046194603F029F902467B681A600FE0BB68164A1A607B68154A1A60FB684FF0FF32DA63FB68CA
S32D00010C484FF0FF321A64002310E001230EE0BB680D4A1A607B680C4A1A60FB684FF0FF32DA63FB684FF0FF32E0
S32D00010C701A64002318461837BD4680BDAFF30080144001144001B43F1EE0011EE001AE3F000080BF80B483B077
S32D00010C9800AF786039603B68002B02DA3B685B423B603B6818460C37BD4680BC704780B584B000AF78603960C5
S32D00010CC00023FB60786800F05EFAFB683A6813441B78002B12D07B6859697B689869FB683A6813441B780246A3
S32D00010CE8786800F02BFC786800F05DFAFB680133FB60E6E700BF1037BD4680BD80B582B000AF78600B46FB7010
S32D00010D10786800F038FA7B6859697B689A69FB78786800F00FFC786800F041FA00BF0837BD4680BD80B582B029
S32D00010D3800AF78603960786800F021FA39687868FFF7B5FF786800F005FA00BF0837BD4680BD80B582B000AF33
S32D00010D6078600B46FB70786800F00DFAFB7819467868FFF7C7FF786800F0F0F900BF0837BD4680BD80B483B02D
S32D00010D8800AF78600B46FB704D4B1B684C4A23F0080313604B4B1B684A4A23F480231360484B1B68474A43F4FF
S32D00010DB080331360454B1B68444A23F440731360414B1B68404A23F4435323F0300313603E4B1A68FB785B0236
S32D00010DD803F400733B4913430B603A4B1A68FB785B101B0203F48073364913430B60344B1A68FB789B101B01D6
S32D00010E0003F01003304913430B602F4B1A68FB78DB105B0103F020032B4913430B602A4B1A68FB781B119B0150
S32D00010E2803F04003264913430B60254B1A68FB785B11DB01DBB2224913430B60204B1A68FB789B111B0303F4AE
S32D00010E5080531D4913430B601B4B1A6897F90330DB115BB25B0303F40053174913430B60164B1B68154A23F4B2
S32D00010E7800331360134B1B68124A43F4003313600F4B1B680E4A43F0080313600D4B1B680C4A43F44073136017
S32D00010EA0094B1B68084A43F4435343F030031360064B1B68054A43F48023136000BF0C37BD4680BC704700BF2D
S32D00010EC880F00F4040F00F4080B483B000AF78600B46FB70464B1B68454A23F008031360444B1B68434A43F409
S32D00010EF080331360414B1B68404A43F4802313603E4B1B683D4A23F4407313603A4B1B68394A23F4435323F0AC
S32D00010F1830031360374B1A68FB785B0203F40073344913430B60334B1A68FB785B101B0203F480732F491343D5
S32D00010F400B602D4B1A68FB789B101B0103F01003294913430B60284B1A68FB78DB105B0103F020032449134322
S32D00010F680B60234B1A68FB781B119B0103F040031F4913430B601E4B1A68FB785B11DB01DBB21B4913430B600D
S32D00010F90194B1A68FB789B111B0303F48053164913430B60144B1A6897F90330DB115BB25B0303F40053104987
S32D00010FB813430B600F4B1B680E4A23F4003313600C4B1B680B4A43F400331360084B1B68074A43F00803136073
S32D00010FE0064B1B68054A23F48023136000BF0C37BD4680BC704700BF80F00F4040F00F4080B586B000AF7860AB
S32D000110087B6800225A617B6800229A617B681B6AFB60FB68FB72FB681B0ABB72FB681B0CDBB203F003037B72B4
S32D000110302A217868FFF7A6FE00217868FFF748FF00217868FFF744FF01217868FFF740FF3F217868FFF73CFFAC
S32D000110582B217868FFF792FE00217868FFF734FF00217868FFF730FF00217868FFF72CFFEF217868FFF728FF38
S32D000110802C217868FFF77EFE314B1B68304A23F4407313602F4B1B682E4A23F47F2323F0F00313602C4B1B684B
S32D000110A82B4A23F01D031360274B1A687B681B6B254913430B60254B1A687B685B6B234913430B60224B1A68BB
S32D000110D07B689B6B204913430B601E4B1B681D4A23F0080313601A4B1B68194A43F48023136000237B617B697F
S32D000110F8EF2B19D800233B613B69B3F5A07F0FD2114B1B68104A23F4003313600E4B1B680D4A43F400331360AD
S32D000111203B6901333B61EBE77B6901337B61E2E7084B1B68074A43F008031360044B1B68034A23F48023136079
S32D0001114800BF1837BD4680BD40F00F4080F00F40C0F00F4080B483B000AF78607B689B69002B07DD7B685B6962
S32D000111705A1C7B685A617B6800229A6100BF0C37BD4680BC704780B582B000AF78607B685A697B685B689A422E
S32D0001119805DB7B6800225A617868FFF72DFF00BF0837BD4680BD80B582B000AF78607B689B695A1C7B689A611F
S32D000111C07B689A697B689B689A4205D17868FFF7C5FF7868FFF7D7FF00BF0837BD4680BD80B586B002AFF8608A
S32D000111E8B9607A600123009301237A68B968F86800F059F8F86800F0FDFA00BF1037BD4680BD80B485B000AFC1
S32D00011210786039607B681B68FB603B681A687B681A603B68FA681A6000BF1437BD4680BC704780B586B002AF60
S32D00011238F860B9607A603B60BA683B681A447B68009313467A68B968F86800F0D1F8BA683B68D118BA683B6820
S32D00011260D0187A68BB691344009303467A68F86800F0C2F8BA683B68D1187A68BB69D0187A68BB6913440093C6
S32D00011288BB680246F86800F0B3F87A68BB691A447B680093BB68B968F86800F0A9F800BF1037BD4680BD80B547
S32D000112B088B000AFF860B9607A603B60FB681B78022B03D0FB681B78032B11D17B68FB61BA6AFB691344013BEC
S32D000112D8BB61FB68DA68BB68D31A3B613B683A69D31A01337B610DE0BB68FB613A68FB691344013BBB617B6833
S32D000113007B61BA6A7B691344013B3B612A21F868FFF738FDFB691B0ADBB203F00F03DBB21946F868FFF7D4FDA7
S32D00011328FB69DBB21946F868FFF7CEFDBB691B0ADBB203F00F03DBB21946F868FFF7C4FDBB69DBB21946F868D7
S32D00011350FFF7BEFD2B21F868FFF714FD7B691B0ADBB203F00F03DBB21946F868FFF7B0FD7B69DBB21946F86850
S32D00011378FFF7AAFD3B691B0ADBB203F00F03DBB21946F868FFF7A0FD3B69DBB21946F868FFF79AFD2C21F86845
S32D000113A0FFF7F0FC00BF2037BD4680BD80B588B002AFF860B9607A603B603B6A00933B687A68B968F868FFF7AE
S32D000113C872FFF86800F016FA01237B613B683A6A02FB03F37A699A4206DAF86800F0D2F97B6901337B61F1E765
S32D000113F000BF1837BD4680BD90B58BB000AFF860B9607A603B603A68BB68D31A1946F868FFF740FCF861BA6B4A
S32D000114187B68D31A1946F868FFF738FCB861BA69FB699A42CCBF01230023FB75FB7D002B0CD03A1D07F1080355
S32D0001144011461846FFF7E1FE3B4607F138011846FFF7DBFEBA683B689A420CDD3A4607F1080311461846FFF75C
S32D00011468D0FE3B1D07F138011846FFF7CAFE3A68BB689A4206D1BB687A681946F868FFF7ABFE55E0BA6B7B68CA
S32D00011490D31A184602F0FCFD04463A68BB68D31A184602F0F5FD03461946204602F0F8FE03463B617B6818469D
S32D000114B802F0EAFD03467B62BB683B623B683A6A9A4235DCFB7D002B14D0786A02F098F94FF00002184B02F090
S32D000114E035F802460B461046194602F07FFC03463A6A1946F868FFF773FE13E0786A02F083F94FF000020E4B05
S32D0001150802F020F802460B461046194602F06AFC03461A46396AF868FFF75EFE3969786A02F0FEFC03467B6270
S32D000115303B6A01333B62C5E72C37BD4690BD00BF0000E03F80B584B000AFF860B9607A60FB707A6813465B0075
S32D0001155813449B00991CBA6813461B011344DA1CFB78F86800F004F800BF1037BD4680BD80B58EB002AFF86058
S32D00011580B9607A60FB70FB780A2B06D1F868FFF7FAFDF868FFF7E2FDF2E0FB787D2B02D8FB781F2B01D820233D
S32D000115A8FB70FB78203BFB70112300930C237A68B968F868FFF777FEFA7813469B0013446F4AD35C3B75FA78E5
S32D000115D013469B00134401336B4AD35C7B75FA7813469B0013440233674AD35CBB75FA7813469B0013440333A4
S32D000115F8634AD35CFB75FA7813469B00134404335F4AD35C3B760023BB62BB6A062B00F3A180F86800F050F9B8
S32D00011620F86800F0B3F8002387F82F3000237B627B6A042B35DC07F114027B6A13441B7803F00103002B14BFA8
S32D0001164801230023FB76FB7E002B11D097F82F3083F00103DBB2002B03D0F86800F0CAF802E0F86800F08EF87C
S32D00011670F86800F08BF80DE097F82F30002B03D0F86800F01DF902E0F86800F07FF8F86800F07CF8FB7E87F8D4
S32D000116982F307B6A01337B62C6E797F82F30002B03D0F86800F008F902E0F86800F06AF8F86800F067F800237E
S32D000116C087F82F3000233B623B6A042B42DC07F114023B6A13441B7803F00103002B14BF01230023BB76BB7E28
S32D000116E8002B11D097F82F3083F00103DBB2002B03D0F86800F07EF802E0F86800F042F8F86800F03FF80DE031
S32D0001171097F82F30002B03D0F86800F0D1F802E0F86800F033F8F86800F030F8BB7E87F82F3007F114023B6A06
S32D0001173813441B785B08D9B207F114023B6A13440A461A703B6A01333B62B9E7BB6A0133BB625AE7F86800F0A9
S32D00011760AFF8002387F82F300123FB61FB69232B06DCF86800F00AF8FB690133FB61F5E73037BD4680BD00BF16
S32D000117883C0B002080B483B000AF7860174B1B68164A43F480331360154B1B68144A23F008031360114B1B688A
S32D000117B0104A43F4802313600E4B1B680D4A23F4003313600B4B1B680A4A43F400331360094B1B68084A43F00D
S32D000117D808031360054B1B68044A23F48023136000BF0C37BD4680BC704700BF40F00F4080F00F4080B483B0BA
S32D0001180000AF78602B4B1B682A4A43F480331360294B1B68284A23F008031360254B1B68244A43F480231360C0
S32D00011828224B1B68214A23F440731360204B1B681F4A23F47F2323F0F00313601D4B1B681C4A23F01D03136079
S32D00011850184B1A687B685B6A164913430B60164B1A687B689B6A144913430B60134B1A687B68DB6A114913431B
S32D000118780B600E4B1B680D4A23F4003313600B4B1B680A4A43F400331360094B1B68084A43F008031360054BB2
S32D000118A01B68044A23F48023136000BF0C37BD4680BC704740F00F4080F00F40C0F00F4080B483B000AF7860F8
S32D000118C82B4B1B682A4A43F480331360294B1B68284A23F008031360254B1B68244A43F480231360224B1B688F
S32D000118F0214A23F440731360204B1B681F4A23F47F2323F0F00313601D4B1B681C4A23F01D031360184B1A68BC
S32D000119187B681B6B164913430B60164B1A687B685B6B144913430B60134B1A687B689B6B114913430B600E4B30
S32D000119401B680D4A23F4003313600B4B1B680A4A43F400331360094B1B68084A43F008031360054B1B68044ADC
S32D0001196823F48023136000BF0C37BD4680BC704740F00F4080F00F40C0F00F4080B485B000AF78607B681B6A96
S32D00011990FB60FB68FB72FB681B0ABB72FB681B0CDBB203F003037B727B6800225A627B6800229A627B68002284
S32D000119B8DA627B6800221A637B6800225A637B6800229A637B681A6BFB7A5B0203F400731A437B681A637B683A
S32D000119E01A6BFB7A5B101B0203F480731A437B681A637B685A6BFB7A9B101B0103F010031A437B685A637B68E5
S32D00011A085A6BFB7ADB105B0103F020031A437B685A637B685A6BFB7A1B119B0103F040031A437B685A637B6820
S32D00011A305A6BFB7A5B11DB01DBB21A437B685A637B685A6BFB7A9B111B0303F480531A437B685A637B685A6B25
S32D00011A5897F90B30DB115BB25B0303F400531A437B685A637B685A6BBB7A9B0303F480431A437B685A637B68E1
S32D00011A805A6BBB7A5B10DB039BB21A437B685A637B685A6BBB7A9B101B0403F480331A437B685A637B685A6BB4
S32D00011AA8BB7ADB105B0403F400331A437B685A637B685A6BBB7A1B119B0403F480231A437B685A637B685A6B82
S32D00011AD0BB7A5B11DB0403F400231A437B685A637B689A6BBB7A9B1103F001031A437B689A637B689A6B97F9DB
S32D00011AF80A30DB115BB29B0003F004031A437B689A637B689A6B7B7ADB0003F008031A437B689A637B689A6BDF
S32D00011B207B7A5B101B0103F010031A437B689A637B68DB69FB60FB68FB72FB681B0ABB72FB681B0CDBB203F0C6
S32D00011B4803037B727B685A6AFB7A5B0203F400731A437B685A627B685A6AFB7A5B101B0203F480731A437B68CE
S32D00011B705A627B689A6AFB7A9B101B0103F010031A437B689A627B689A6AFB7ADB105B0103F020031A437B682C
S32D00011B989A627B689A6AFB7A1B119B0103F040031A437B689A627B689A6AFB7A5B11DB01DBB21A437B689A621F
S32D00011BC07B689A6AFB7A9B111B0303F480531A437B689A627B689A6A97F90B30DB115BB25B0303F400531A431A
S32D00011BE87B689A627B689A6ABB7A9B0303F480431A437B689A627B689A6ABB7A5B10DB039BB21A437B689A6251
S32D00011C107B689A6ABB7A9B101B0403F480331A437B689A627B689A6ABB7ADB105B0403F400331A437B689A620D
S32D00011C387B689A6ABB7A1B119B0403F480231A437B689A627B689A6ABB7A5B11DB0403F400231A437B689A6203
S32D00011C607B68DA6ABB7A9B1103F001031A437B68DA627B68DA6A97F90A30DB115BB29B0003F004031A437B681B
S32D00011C88DA627B68DA6A7B7ADB0003F008031A437B68DA627B68DA6A7B7A5B101B0103F010031A437B68DA625B
S32D00011CB000BF1437BD4680BC704780B483B000AF78607B6818460C37BD4680BC704780B584B000AFF860B96014
S32D00011CD87A603B60FB682033B968184602F0ACFFFB687A681A60FB683A689A60FB68BA691A61FB68FA695A6156
S32D00011D00FB681A68FB681B691A44FB685A60FB689A68FB685B691A44FB68DA60FB683A6A9A61FB687A6ADA6162
S32D00011D28FB680022C3F8E82000BF1037BD4680BDF0B585B002AF78607B689B6919461F48FEF72FFE7B68196868
S32D00011D507B689A687B6818697B685B69009303461848FFF766FA7B68DB6919461548FEF71CFE7B6803F12004F5
S32D00011D787B681B681D467B681B691E467B682033184602F0B9FF024613465B0013449B00F31A5B082B4418463F
S32D00011DA07B689A687B685B69113BD90F0B445B101344024621460348FEF70AFE00BF0C37BD46F0BD7C180020E6
S32D00011DC880B584B002AF78607B689B6919461F48FEF7E7FD7B681B68591C7B689B685A1C7B681B69981E7B683D
S32D00011DF05B69023B009303461648FFF71AFA7B681B68991C7B689B689A1C7B681B69181F7B685B69043B0093B1
S32D00011E1803460E48FFF709FA7B681B68D91C7B689B68DA1C7B681B69981F7B685B69063B009303460548FFF7A7
S32D00011E40F8F97B680122C3F8E82000BF0837BD4680BD00BF7C18002080B584B002AF786000211F48FEF7A1FDFB
S32D00011E687B681B68D91C7B689B68DA1C7B681B69981F7B685B69063B009303461648FFF7D4F97B681B68991CF6
S32D00011E907B689B689A1C7B681B69181F7B685B69043B009303460E48FFF7C3F97B681B68591C7B689B685A1CE8
S32D00011EB87B681B69981E7B685B69023B009303460548FFF7B2F97B680022C3F8E82000BF0837BD4680BD00BF6B
S32D00011EE07C18002080B584B000AFF860B9607A603B60FB681B68184602F0CAF80246BB681946104602F0C0FA5D
S32D00011F080346002B00F08180FB685B68184602F0BBF80246BB681946104602F0BBFA0346002B72D0FB689B6839
S32D00011F30184602F0ADF802467B681946104602F0A3FA0346002B64D0FB68DB68184602F09FF802467B6819465F
S32D00011F58104602F09FFA0346002B56D03A1D07F1080319462B48FEF793FDFB681B68184602F08AF80246BB680B
S32D00011F801946104602F080FA0346002B3FD0FB685B68184602F07CF80246BB681946104602F07CFA0346002BA8
S32D00011FA831D0FB689B68184602F06EF802467B681946104602F064FA0346002B23D0FB68DB68184602F060F808
S32D00011FD002467B681946104602F060FA0346002B15D03B68002B10D1FB68D3F8E830002B03D1F868FFF7E8FE2D
S32D00011FF807E0FB68D3F8E830002B02D0F868FFF727FF012302E0002300E0002318461037BD4680BD7C1800204F
S32D0001202080B586B000AFF860B9607A60BB687B617B683B6179693A690123F868FFF752FF0346002B14BF0123F3
S32D000120480023DBB2002B08D007F1100207F1140319460448FEF71CFDE8E700BF1837BD4680BD00BF7C18002054
S32D00012070B0B592B004AFF860B9607A603B60FB6C7B633B683B63F86C01F0ACFB02460B464FF000004E4901F01F
S32D0001209857FA02460B4614461D46386D01F09EFB02460B462046294601F04AFA02460B461046194601F0DEFE85
S32D000120C003463B62386801F08DFB02460B464FF00000404901F038FA02460B4614461D46B86C01F07FFB024641
S32D000120E80B462046294601F02BFA02460B461046194601F0BFFE0346FB61786801F0C4FF03461946386A02F01C
S32D00012110C7F80346184602F0D5F90346BB61B86801F0B6FF03461946F86902F0B9F80346184602F0C7F9034601
S32D000121387B6100237B620123BB62BA6ABB689A423DDC0123FB62FA6A7B689A422DDC7B6AEC2202FB03F3FA682A
S32D00012160D0187A6A13469B0013449B001A467B6D9918FB6D0393BB6D02937B690193BB6900933B6B7A6BFFF73A
S32D00012188A2FD7B6AEC2202FB03F3FA6813441846FFF7CEFD7B6A01337B627A6BBB6913447B63FB6A0133FB62A1
S32D000121B0CDE73A6B7B6913443B63FB6C7B63BB6A0133BB62BDE700BF3837BD46B0BD00BF0000744000006E40B0
S32D000121D880B582B000AF786039607B68012B07D13B684FF6FF72934202D10348FEF7F8F900BF0837BD4680BDFA
S32D000122007C18002080B500AF4FF6FF710120FFF7E3FF80BD80B582B000AF7860164B03F580535B6B144A43F0BB
S32D00012228400302F580525363124B4FF400725A62104B4FF400721A620F4B14225A700E4B1B7ADBB20C4A43F00D
S32D000122500103DBB213720A4B80229A7002212B20FBF7B6FA3D212A20FBF7B2FA7B6818460837BD4680BD00BF73
S32D000122780070044000C004400060064080B582B000AF786039607B68012B07D13B684FF6FF72934202D103481F
S32D000122A0FFF7B8FF00BF0837BD4680BDC418002080B500AF4FF6FF710120FFF7E3FF80BD80B582B000AF78606B
S32D000122C80B46FB707B68FA7811461846FDF7BCFB7B6818460837BD4680BD000080B582B000AF786039607B684C
S32D000122F0012B08D13B684FF6FF72934203D120210348FFF7DDFF00BF0837BD4680BD00BFC818002080B500AF79
S32D000123184FF6FF710120FFF7E1FF80BD80B483B000AF78607B6800221A707B6818460C37BD4680BC70470000B6
S32D0001234080B582B000AF78607B681B7883F00103DBB2002B52D07B6801221A702A4B03F580535B6B284A43F47A
S32D00012368806302F580525363264B4FF400725A60244B4FF400729A60234B1B684FF4165219462248FBF778FB1C
S32D00012390204BDB78DBB21F4A23F00C03DBB2D3701C4BDB78DBB21B4A43F02003DBB2D370184BDB7ADBB2174A00
S32D000123B823F02003DBB2D372154BD3F88431144A43F40053C2F88431114B5B68104A43F4005353600D4BDB7856
S32D000123E0DBB20C4A43F00C03DBB2D3706420FCF7D7FF7B6801221A70012300E0002318460837BD4680BD00BF39
S32D000124080070044000900440C417002000A0064000E100E080B483B000AF78607B681B7818460C37BD4680BC37
S32D000124307047000080B487B000AFF860B9607A60FB700023FB7400237B617A697B689A422BD2194B1B78002BA4
S32D0001245800D1FAE7BA687B691344164A12781A70134B00221A70BA687B6913441B780D2B16D0FB7C83F00103CC
S32D00012480DBB2002B0CD0BA687B6913441B78FA789A4202D10123FB7402E07B69013B7B617B6901337B61D0E76C
S32D000124A800BF7B6918461C37BD4680BC704700BFE2180020E318002080B586B000AFF860B9607A6000237B6163
S32D000124D07A697B689A420BD2BA687B6913441B7819460648FBF79FFB7B6901337B61EFE77B6918461837BD46D7
S32D000124F880BD00BF00A0064080B483B000AF78603960044A3B68136000BF0C37BD4680BC704700BFCC1800202D
S32D0001252080B582B000AF3248FBF764FB0346FB71304AFB791370304B01221A702F4B1B78022B33D0022B4FDCC8
S32D00012548002B02D0012B14D04AE0FB79FF2B44D1284B01221A70284B00221A70264B1B785A1CD1B2244A11704F
S32D000125701946244AFB79535433E0214B1B785A1CD1B21F4A117019461E4AFB7953541C4B1B780D2B27D11C4BEC
S32D000125981B68194A1278114618489847154B02221A701CE0FB79FF2B10D1124B01221A70114B00221A70104B18
S32D000125C01B785A1CD1B20E4A117019460D4AFB79535409E00A4B00221A70084B00221A7002E000BF00E000BF8D
S32D000125E800BF0837BD4680BD00A00640E3180020E2180020E1180020E0180020D0180020CC18002080B582B0C7
S32D0001261000AF78607B681846FFF784FE7B6811491846FFF76DFF7B684FF0FF325A600E4B4FF000021A600D4BE5
S32D000126384FF000021A600C4B4FF000021A600B4B00221A600A4B00221A700A4B00221A707B6818460837BD462F
S32D0001266080BD00BF35330100F0180020F4180020F8180020FC180020001900200119002080B59AB000AFF86035
S32D00012688B9607A60FB681846FFF7C4FE034683F00103DBB2002B03D0FB681846FFF74CFEAD4B1B7883F0010369
S32D000126B0DBB2002B00F09B83FB681846FFF740FEA74B1B7883F00103DBB2002B00F08F83BB68002B02DA00233D
S32D000126D8BB6004E0BB680B2B01DD0B23BB60FB68BA685A609D48FEF716F900237B6300237B66002387F86330F2
S32D0001270097F86330002B69D197499648FEF7D3FA2B2387F820302B2387F821302B2387F82230FB6807F12001CD
S32D0001272803221846FFF7C8FE7863F86807F114014F230A22FFF77AFE78667B6E012B02D93B7D4F2B42D087490D
S32D000127508448FEF7EFFA86498248FEF7EBFA40F6C410FCF71DFEF86807F1140130230A22FFF760FE78667B6E1E
S32D00012778012B02D93B7D4F2B24D07C497748FEF7D5FA7B497548FEF792FA0023FB65FB6D7A6E9A420CD907F12F
S32D000127A01402FB6D13441B7819466E48FEF7AAFAFB6D0133FB65EEE76C496A48FEF7BAFA6E496848FEF7B6FA07
S32D000127C800BF06E0012387F8633002E0012387F8633091E768496148FEF769FA0023BB65BB6D7A6E9A420CD9B1
S32D000127F007F11402BB6D13441B7819465948FEF781FABB6D0133BB65EEE758495548FEF791FA5C495348FEF7E6
S32D000128184EFA412387F82030542387F821304D2387F82230592387F82330FB685B68002B00DA03339B10DBB2A7
S32D000128403133DBB287F82430312387F82530302387F82630FB685B685A4203F0030302F0030258BF5342DBB26A
S32D000128683033DBB287F827300D2387F82830FB6807F1200109221846FFF71EFE7863F86807F114014F230A2277
S32D00012890FFF7D0FD78667B6E012B02D93B7D4F2B04D039492F48FEF745FAA0E200237B657B6D7A6E9A420CD93F
S32D000128B807F114027B6D13441B7819462748FEF71DFA7B6D01337B65EEE726492348FEF72DFA2C492148FEF79D
S32D000128E0EAF9412387F82030542387F82130492387F82230442387F82330FB685B68002B00DA03339B10DBB25D
S32D000129083133DBB287F82430302387F82530302387F82630302387F827300D2387F82830FB6807F120010922B6
S32D000129301846FFF7C5FD7863F86807F114014F230A22FFF777FD78667B6E012B02D93B7D4F2B1DD00C49034885
